{
  "_format": "hh-sol-artifact-1",
  "contractName": "yieldFarm",
  "sourceName": "contracts/yieldFarm.sol",
  "abi": [
    {
      "inputs": [],
      "stateMutability": "nonpayable",
      "type": "constructor"
    },
    {
      "inputs": [
        {
          "internalType": "address",
          "name": "spender",
          "type": "address"
        },
        {
          "internalType": "uint256",
          "name": "allowance",
          "type": "uint256"
        },
        {
          "internalType": "uint256",
          "name": "needed",
          "type": "uint256"
        }
      ],
      "name": "ERC20InsufficientAllowance",
      "type": "error"
    },
    {
      "inputs": [
        {
          "internalType": "address",
          "name": "sender",
          "type": "address"
        },
        {
          "internalType": "uint256",
          "name": "balance",
          "type": "uint256"
        },
        {
          "internalType": "uint256",
          "name": "needed",
          "type": "uint256"
        }
      ],
      "name": "ERC20InsufficientBalance",
      "type": "error"
    },
    {
      "inputs": [
        {
          "internalType": "address",
          "name": "approver",
          "type": "address"
        }
      ],
      "name": "ERC20InvalidApprover",
      "type": "error"
    },
    {
      "inputs": [
        {
          "internalType": "address",
          "name": "receiver",
          "type": "address"
        }
      ],
      "name": "ERC20InvalidReceiver",
      "type": "error"
    },
    {
      "inputs": [
        {
          "internalType": "address",
          "name": "sender",
          "type": "address"
        }
      ],
      "name": "ERC20InvalidSender",
      "type": "error"
    },
    {
      "inputs": [
        {
          "internalType": "address",
          "name": "spender",
          "type": "address"
        }
      ],
      "name": "ERC20InvalidSpender",
      "type": "error"
    },
    {
      "anonymous": false,
      "inputs": [
        {
          "indexed": true,
          "internalType": "address",
          "name": "owner",
          "type": "address"
        },
        {
          "indexed": true,
          "internalType": "address",
          "name": "spender",
          "type": "address"
        },
        {
          "indexed": false,
          "internalType": "uint256",
          "name": "value",
          "type": "uint256"
        }
      ],
      "name": "Approval",
      "type": "event"
    },
    {
      "anonymous": false,
      "inputs": [
        {
          "indexed": true,
          "internalType": "address",
          "name": "from",
          "type": "address"
        },
        {
          "indexed": true,
          "internalType": "address",
          "name": "to",
          "type": "address"
        },
        {
          "indexed": false,
          "internalType": "uint256",
          "name": "value",
          "type": "uint256"
        }
      ],
      "name": "Transfer",
      "type": "event"
    },
    {
      "inputs": [
        {
          "internalType": "uint256",
          "name": "maxAmount",
          "type": "uint256"
        },
        {
          "internalType": "uint256",
          "name": "yieldPercent",
          "type": "uint256"
        },
        {
          "internalType": "uint256",
          "name": "minDeposit",
          "type": "uint256"
        },
        {
          "internalType": "uint256",
          "name": "rewardTime",
          "type": "uint256"
        }
      ],
      "name": "addPool",
      "outputs": [],
      "stateMutability": "nonpayable",
      "type": "function"
    },
    {
      "inputs": [
        {
          "internalType": "address",
          "name": "owner",
          "type": "address"
        },
        {
          "internalType": "address",
          "name": "spender",
          "type": "address"
        }
      ],
      "name": "allowance",
      "outputs": [
        {
          "internalType": "uint256",
          "name": "",
          "type": "uint256"
        }
      ],
      "stateMutability": "view",
      "type": "function"
    },
    {
      "inputs": [
        {
          "internalType": "address",
          "name": "spender",
          "type": "address"
        },
        {
          "internalType": "uint256",
          "name": "value",
          "type": "uint256"
        }
      ],
      "name": "approve",
      "outputs": [
        {
          "internalType": "bool",
          "name": "",
          "type": "bool"
        }
      ],
      "stateMutability": "nonpayable",
      "type": "function"
    },
    {
      "inputs": [
        {
          "internalType": "address",
          "name": "account",
          "type": "address"
        }
      ],
      "name": "balanceOf",
      "outputs": [
        {
          "internalType": "uint256",
          "name": "",
          "type": "uint256"
        }
      ],
      "stateMutability": "view",
      "type": "function"
    },
    {
      "inputs": [
        {
          "internalType": "uint256",
          "name": "poolId",
          "type": "uint256"
        }
      ],
      "name": "checkPoolDetails",
      "outputs": [
        {
          "internalType": "uint256",
          "name": "",
          "type": "uint256"
        },
        {
          "internalType": "uint256",
          "name": "",
          "type": "uint256"
        },
        {
          "internalType": "uint256",
          "name": "",
          "type": "uint256"
        },
        {
          "internalType": "uint256",
          "name": "",
          "type": "uint256"
        }
      ],
      "stateMutability": "view",
      "type": "function"
    },
    {
      "inputs": [
        {
          "internalType": "uint256",
          "name": "poolId",
          "type": "uint256"
        }
      ],
      "name": "claimRewards",
      "outputs": [],
      "stateMutability": "nonpayable",
      "type": "function"
    },
    {
      "inputs": [],
      "name": "decimals",
      "outputs": [
        {
          "internalType": "uint8",
          "name": "",
          "type": "uint8"
        }
      ],
      "stateMutability": "view",
      "type": "function"
    },
    {
      "inputs": [
        {
          "internalType": "uint256",
          "name": "poolId",
          "type": "uint256"
        }
      ],
      "name": "depositWei",
      "outputs": [],
      "stateMutability": "payable",
      "type": "function"
    },
    {
      "inputs": [],
      "name": "name",
      "outputs": [
        {
          "internalType": "string",
          "name": "",
          "type": "string"
        }
      ],
      "stateMutability": "view",
      "type": "function"
    },
    {
      "inputs": [],
      "name": "owner",
      "outputs": [
        {
          "internalType": "address",
          "name": "",
          "type": "address"
        }
      ],
      "stateMutability": "view",
      "type": "function"
    },
    {
      "inputs": [],
      "name": "symbol",
      "outputs": [
        {
          "internalType": "string",
          "name": "",
          "type": "string"
        }
      ],
      "stateMutability": "view",
      "type": "function"
    },
    {
      "inputs": [],
      "name": "totalSupply",
      "outputs": [
        {
          "internalType": "uint256",
          "name": "",
          "type": "uint256"
        }
      ],
      "stateMutability": "view",
      "type": "function"
    },
    {
      "inputs": [
        {
          "internalType": "address",
          "name": "to",
          "type": "address"
        },
        {
          "internalType": "uint256",
          "name": "value",
          "type": "uint256"
        }
      ],
      "name": "transfer",
      "outputs": [
        {
          "internalType": "bool",
          "name": "",
          "type": "bool"
        }
      ],
      "stateMutability": "nonpayable",
      "type": "function"
    },
    {
      "inputs": [
        {
          "internalType": "address",
          "name": "from",
          "type": "address"
        },
        {
          "internalType": "address",
          "name": "to",
          "type": "address"
        },
        {
          "internalType": "uint256",
          "name": "value",
          "type": "uint256"
        }
      ],
      "name": "transferFrom",
      "outputs": [
        {
          "internalType": "bool",
          "name": "",
          "type": "bool"
        }
      ],
      "stateMutability": "nonpayable",
      "type": "function"
    },
    {
      "inputs": [
        {
          "internalType": "uint256",
          "name": "poolId",
          "type": "uint256"
        },
        {
          "internalType": "uint256",
          "name": "amount",
          "type": "uint256"
        }
      ],
      "name": "withdrawWei",
      "outputs": [],
      "stateMutability": "payable",
      "type": "function"
    }
  ],
  "bytecode": "0x60a060405260006005553480156200001657600080fd5b506040518060400160405280600481526020017f486f6c69000000000000000000000000000000000000000000000000000000008152506040518060400160405280600281526020017f484c00000000000000000000000000000000000000000000000000000000000081525081600390816200009491906200035d565b508060049081620000a691906200035d565b5050503373ffffffffffffffffffffffffffffffffffffffff1660808173ffffffffffffffffffffffffffffffffffffffff168152505062000444565b600081519050919050565b7f4e487b7100000000000000000000000000000000000000000000000000000000600052604160045260246000fd5b7f4e487b7100000000000000000000000000000000000000000000000000000000600052602260045260246000fd5b600060028204905060018216806200016557607f821691505b6020821081036200017b576200017a6200011d565b5b50919050565b60008190508160005260206000209050919050565b60006020601f8301049050919050565b600082821b905092915050565b600060088302620001e57fffffffffffffffffffffffffffffffffffffffffffffffffffffffffffffffff82620001a6565b620001f18683620001a6565b95508019841693508086168417925050509392505050565b6000819050919050565b6000819050919050565b60006200023e62000238620002328462000209565b62000213565b62000209565b9050919050565b6000819050919050565b6200025a836200021d565b62000272620002698262000245565b848454620001b3565b825550505050565b600090565b620002896200027a565b620002968184846200024f565b505050565b5b81811015620002be57620002b26000826200027f565b6001810190506200029c565b5050565b601f8211156200030d57620002d78162000181565b620002e28462000196565b81016020851015620002f2578190505b6200030a620003018562000196565b8301826200029b565b50505b505050565b600082821c905092915050565b6000620003326000198460080262000312565b1980831691505092915050565b60006200034d83836200031f565b9150826002028217905092915050565b6200036882620000e3565b67ffffffffffffffff811115620003845762000383620000ee565b5b6200039082546200014c565b6200039d828285620002c2565b600060209050601f831160018114620003d55760008415620003c0578287015190505b620003cc85826200033f565b8655506200043c565b601f198416620003e58662000181565b60005b828110156200040f57848901518255600182019150602085019450602081019050620003e8565b868310156200042f57848901516200042b601f8916826200031f565b8355505b6001600288020188555050505b505050505050565b608051611d5b62000467600039600081816107230152610c560152611d5b6000f3fe6080604052600436106100e85760003560e01c80638da5cb5b1161008a578063a8376b3c11610059578063a8376b3c14610300578063a9059cbb1461031c578063b7c7c4e014610359578063dd62ed3e14610382576100e8565b80638da5cb5b1461024e5780638fb0a9f41461027957806395d89b41146102b9578063a3f81da0146102e4576100e8565b806318160ddd116100c657806318160ddd1461017e57806323b872dd146101a9578063313ce567146101e657806370a0823114610211576100e8565b806306fdde03146100ed578063095ea7b3146101185780630962ef7914610155575b600080fd5b3480156100f957600080fd5b506101026103bf565b60405161010f919061142f565b60405180910390f35b34801561012457600080fd5b5061013f600480360381019061013a91906114ea565b610451565b60405161014c9190611545565b60405180910390f35b34801561016157600080fd5b5061017c60048036038101906101779190611560565b610474565b005b34801561018a57600080fd5b50610193610697565b6040516101a0919061159c565b60405180910390f35b3480156101b557600080fd5b506101d060048036038101906101cb91906115b7565b6106a1565b6040516101dd9190611545565b60405180910390f35b3480156101f257600080fd5b506101fb6106d0565b6040516102089190611626565b60405180910390f35b34801561021d57600080fd5b5061023860048036038101906102339190611641565b6106d9565b604051610245919061159c565b60405180910390f35b34801561025a57600080fd5b50610263610721565b604051610270919061167d565b60405180910390f35b34801561028557600080fd5b506102a0600480360381019061029b9190611560565b610745565b6040516102b09493929190611698565b60405180910390f35b3480156102c557600080fd5b506102ce6107c3565b6040516102db919061142f565b60405180910390f35b6102fe60048036038101906102f99190611560565b610855565b005b61031a600480360381019061031591906116dd565b610a80565b005b34801561032857600080fd5b50610343600480360381019061033e91906114ea565b610c31565b6040516103509190611545565b60405180910390f35b34801561036557600080fd5b50610380600480360381019061037b919061171d565b610c54565b005b34801561038e57600080fd5b506103a960048036038101906103a49190611784565b610d7a565b6040516103b6919061159c565b60405180910390f35b6060600380546103ce906117f3565b80601f01602080910402602001604051908101604052809291908181526020018280546103fa906117f3565b80156104475780601f1061041c57610100808354040283529160200191610447565b820191906000526020600020905b81548152906001019060200180831161042a57829003601f168201915b5050505050905090565b60008061045c610e01565b9050610469818585610e09565b600191505092915050565b600062015180905060006007600084815260200190815260200160002060003373ffffffffffffffffffffffffffffffffffffffff1673ffffffffffffffffffffffffffffffffffffffff16815260200190815260200160002060010154905060006006600085815260200190815260200160002060030154905060008342846104fe9190611853565b61050891906118b6565b90506000811161054d576040517f08c379a000000000000000000000000000000000000000000000000000000000815260040161054490611933565b60405180910390fd5b6000600660008781526020019081526020016000206001015483836105729190611953565b61057c9190611984565b905060006007600088815260200190815260200160002060003373ffffffffffffffffffffffffffffffffffffffff1673ffffffffffffffffffffffffffffffffffffffff16815260200190815260200160002060020154826105df9190611984565b905060003373ffffffffffffffffffffffffffffffffffffffff1682604051610607906119f7565b60006040518083038185875af1925050503d8060008114610644576040519150601f19603f3d011682016040523d82523d6000602084013e610649565b606091505b505090508061068d576040517f08c379a000000000000000000000000000000000000000000000000000000000815260040161068490611a58565b60405180910390fd5b5050505050505050565b6000600254905090565b6000806106ac610e01565b90506106b9858285610e1b565b6106c4858585610eaf565b60019150509392505050565b60006012905090565b60008060008373ffffffffffffffffffffffffffffffffffffffff1673ffffffffffffffffffffffffffffffffffffffff168152602001908152602001600020549050919050565b7f000000000000000000000000000000000000000000000000000000000000000081565b6000806000806000600660008781526020019081526020016000206040518060a001604052908160008201548152602001600182015481526020016002820154815260200160038201548152602001600482015481525050905080600001518160200151826040015183606001519450945094509450509193509193565b6060600480546107d2906117f3565b80601f01602080910402602001604051908101604052809291908181526020018280546107fe906117f3565b801561084b5780601f106108205761010080835404028352916020019161084b565b820191906000526020600020905b81548152906001019060200180831161082e57829003601f168201915b5050505050905090565b6000600660008381526020019081526020016000206040518060a001604052908160008201548152602001600182015481526020016002820154815260200160038201548152602001600482015481525050905080604001513410156108f0576040517f08c379a00000000000000000000000000000000000000000000000000000000081526004016108e790611aea565b60405180910390fd5b6005548211158015610903575060008210155b610942576040517f08c379a000000000000000000000000000000000000000000000000000000000815260040161093990611b56565b60405180910390fd5b816007600084815260200190815260200160002060003373ffffffffffffffffffffffffffffffffffffffff1673ffffffffffffffffffffffffffffffffffffffff16815260200190815260200160002060000154036109d7576040517f08c379a00000000000000000000000000000000000000000000000000000000081526004016109ce90611bc2565b60405180910390fd5b34816080018181516109e99190611be2565b915081815250506040518060600160405280838152602001428152602001348152506007600084815260200190815260200160002060003373ffffffffffffffffffffffffffffffffffffffff1673ffffffffffffffffffffffffffffffffffffffff1681526020019081526020016000206000820151816000015560208201518160010155604082015181600201559050505050565b806007600084815260200190815260200160002060003373ffffffffffffffffffffffffffffffffffffffff1673ffffffffffffffffffffffffffffffffffffffff168152602001908152602001600020600201541015610b16576040517f08c379a0000000000000000000000000000000000000000000000000000000008152600401610b0d90611c62565b60405180910390fd5b806007600084815260200190815260200160002060003373ffffffffffffffffffffffffffffffffffffffff1673ffffffffffffffffffffffffffffffffffffffff1681526020019081526020016000206002016000828254610b799190611853565b9250508190555060003373ffffffffffffffffffffffffffffffffffffffff1682604051610ba6906119f7565b60006040518083038185875af1925050503d8060008114610be3576040519150601f19603f3d011682016040523d82523d6000602084013e610be8565b606091505b5050905080610c2c576040517f08c379a0000000000000000000000000000000000000000000000000000000008152600401610c2390611a58565b60405180910390fd5b505050565b600080610c3c610e01565b9050610c49818585610eaf565b600191505092915050565b7f000000000000000000000000000000000000000000000000000000000000000073ffffffffffffffffffffffffffffffffffffffff163373ffffffffffffffffffffffffffffffffffffffff1614610ce2576040517f08c379a0000000000000000000000000000000000000000000000000000000008152600401610cd990611cce565b60405180910390fd5b60006040518060a0016040528086815260200185815260200184815260200183815260200160008152509050806006600060055481526020019081526020016000206000820151816000015560208201518160010155604082015181600201556060820151816003015560808201518160040155905050600160056000828254610d6c9190611be2565b925050819055505050505050565b6000600160008473ffffffffffffffffffffffffffffffffffffffff1673ffffffffffffffffffffffffffffffffffffffff16815260200190815260200160002060008373ffffffffffffffffffffffffffffffffffffffff1673ffffffffffffffffffffffffffffffffffffffff16815260200190815260200160002054905092915050565b600033905090565b610e168383836001610fa3565b505050565b6000610e278484610d7a565b90507fffffffffffffffffffffffffffffffffffffffffffffffffffffffffffffffff8114610ea95781811015610e99578281836040517ffb8f41b2000000000000000000000000000000000000000000000000000000008152600401610e9093929190611cee565b60405180910390fd5b610ea884848484036000610fa3565b5b50505050565b600073ffffffffffffffffffffffffffffffffffffffff168373ffffffffffffffffffffffffffffffffffffffff1603610f215760006040517f96c6fd1e000000000000000000000000000000000000000000000000000000008152600401610f18919061167d565b60405180910390fd5b600073ffffffffffffffffffffffffffffffffffffffff168273ffffffffffffffffffffffffffffffffffffffff1603610f935760006040517fec442f05000000000000000000000000000000000000000000000000000000008152600401610f8a919061167d565b60405180910390fd5b610f9e83838361117a565b505050565b600073ffffffffffffffffffffffffffffffffffffffff168473ffffffffffffffffffffffffffffffffffffffff16036110155760006040517fe602df0500000000000000000000000000000000000000000000000000000000815260040161100c919061167d565b60405180910390fd5b600073ffffffffffffffffffffffffffffffffffffffff168373ffffffffffffffffffffffffffffffffffffffff16036110875760006040517f94280d6200000000000000000000000000000000000000000000000000000000815260040161107e919061167d565b60405180910390fd5b81600160008673ffffffffffffffffffffffffffffffffffffffff1673ffffffffffffffffffffffffffffffffffffffff16815260200190815260200160002060008573ffffffffffffffffffffffffffffffffffffffff1673ffffffffffffffffffffffffffffffffffffffff168152602001908152602001600020819055508015611174578273ffffffffffffffffffffffffffffffffffffffff168473ffffffffffffffffffffffffffffffffffffffff167f8c5be1e5ebec7d5bd14f71427d1e84f3dd0314c0f7b2291e5b200ac8c7c3b9258460405161116b919061159c565b60405180910390a35b50505050565b600073ffffffffffffffffffffffffffffffffffffffff168373ffffffffffffffffffffffffffffffffffffffff16036111cc5780600260008282546111c09190611be2565b9250508190555061129f565b60008060008573ffffffffffffffffffffffffffffffffffffffff1673ffffffffffffffffffffffffffffffffffffffff16815260200190815260200160002054905081811015611258578381836040517fe450d38c00000000000000000000000000000000000000000000000000000000815260040161124f93929190611cee565b60405180910390fd5b8181036000808673ffffffffffffffffffffffffffffffffffffffff1673ffffffffffffffffffffffffffffffffffffffff16815260200190815260200160002081905550505b600073ffffffffffffffffffffffffffffffffffffffff168273ffffffffffffffffffffffffffffffffffffffff16036112e85780600260008282540392505081905550611335565b806000808473ffffffffffffffffffffffffffffffffffffffff1673ffffffffffffffffffffffffffffffffffffffff168152602001908152602001600020600082825401925050819055505b8173ffffffffffffffffffffffffffffffffffffffff168373ffffffffffffffffffffffffffffffffffffffff167fddf252ad1be2c89b69c2b068fc378daa952ba7f163c4a11628f55a4df523b3ef83604051611392919061159c565b60405180910390a3505050565b600081519050919050565b600082825260208201905092915050565b60005b838110156113d95780820151818401526020810190506113be565b60008484015250505050565b6000601f19601f8301169050919050565b60006114018261139f565b61140b81856113aa565b935061141b8185602086016113bb565b611424816113e5565b840191505092915050565b6000602082019050818103600083015261144981846113f6565b905092915050565b600080fd5b600073ffffffffffffffffffffffffffffffffffffffff82169050919050565b600061148182611456565b9050919050565b61149181611476565b811461149c57600080fd5b50565b6000813590506114ae81611488565b92915050565b6000819050919050565b6114c7816114b4565b81146114d257600080fd5b50565b6000813590506114e4816114be565b92915050565b6000806040838503121561150157611500611451565b5b600061150f8582860161149f565b9250506020611520858286016114d5565b9150509250929050565b60008115159050919050565b61153f8161152a565b82525050565b600060208201905061155a6000830184611536565b92915050565b60006020828403121561157657611575611451565b5b6000611584848285016114d5565b91505092915050565b611596816114b4565b82525050565b60006020820190506115b1600083018461158d565b92915050565b6000806000606084860312156115d0576115cf611451565b5b60006115de8682870161149f565b93505060206115ef8682870161149f565b9250506040611600868287016114d5565b9150509250925092565b600060ff82169050919050565b6116208161160a565b82525050565b600060208201905061163b6000830184611617565b92915050565b60006020828403121561165757611656611451565b5b60006116658482850161149f565b91505092915050565b61167781611476565b82525050565b6000602082019050611692600083018461166e565b92915050565b60006080820190506116ad600083018761158d565b6116ba602083018661158d565b6116c7604083018561158d565b6116d4606083018461158d565b95945050505050565b600080604083850312156116f4576116f3611451565b5b6000611702858286016114d5565b9250506020611713858286016114d5565b9150509250929050565b6000806000806080858703121561173757611736611451565b5b6000611745878288016114d5565b9450506020611756878288016114d5565b9350506040611767878288016114d5565b9250506060611778878288016114d5565b91505092959194509250565b6000806040838503121561179b5761179a611451565b5b60006117a98582860161149f565b92505060206117ba8582860161149f565b9150509250929050565b7f4e487b7100000000000000000000000000000000000000000000000000000000600052602260045260246000fd5b6000600282049050600182168061180b57607f821691505b60208210810361181e5761181d6117c4565b5b50919050565b7f4e487b7100000000000000000000000000000000000000000000000000000000600052601160045260246000fd5b600061185e826114b4565b9150611869836114b4565b925082820390508181111561188157611880611824565b5b92915050565b7f4e487b7100000000000000000000000000000000000000000000000000000000600052601260045260246000fd5b60006118c1826114b4565b91506118cc836114b4565b9250826118dc576118db611887565b5b828204905092915050565b7f496e76616c69642074726173616374696f6e0000000000000000000000000000600082015250565b600061191d6012836113aa565b9150611928826118e7565b602082019050919050565b6000602082019050818103600083015261194c81611910565b9050919050565b600061195e826114b4565b9150611969836114b4565b92508261197957611978611887565b5b828206905092915050565b600061198f826114b4565b915061199a836114b4565b92508282026119a8816114b4565b915082820484148315176119bf576119be611824565b5b5092915050565b600081905092915050565b50565b60006119e16000836119c6565b91506119ec826119d1565b600082019050919050565b6000611a02826119d4565b9150819050919050565b7f4661696c656420746f2073656e64204574686572000000000000000000000000600082015250565b6000611a426014836113aa565b9150611a4d82611a0c565b602082019050919050565b60006020820190508181036000830152611a7181611a35565b9050919050565b7f416464206d6f72652077656920746f206465706f736974696e6720616d6f756e60008201527f7400000000000000000000000000000000000000000000000000000000000000602082015250565b6000611ad46021836113aa565b9150611adf82611a78565b604082019050919050565b60006020820190508181036000830152611b0381611ac7565b9050919050565b7f496e76616c696420506f6f6c0000000000000000000000000000000000000000600082015250565b6000611b40600c836113aa565b9150611b4b82611b0a565b602082019050919050565b60006020820190508181036000830152611b6f81611b33565b9050919050565b7f556e6174686f72697a6564000000000000000000000000000000000000000000600082015250565b6000611bac600b836113aa565b9150611bb782611b76565b602082019050919050565b60006020820190508181036000830152611bdb81611b9f565b9050919050565b6000611bed826114b4565b9150611bf8836114b4565b9250828201905080821115611c1057611c0f611824565b5b92915050565b7f496e76616c6964207472616e73616374696f6e00000000000000000000000000600082015250565b6000611c4c6013836113aa565b9150611c5782611c16565b602082019050919050565b60006020820190508181036000830152611c7b81611c3f565b9050919050565b7f556e617574686f72697a65640000000000000000000000000000000000000000600082015250565b6000611cb8600c836113aa565b9150611cc382611c82565b602082019050919050565b60006020820190508181036000830152611ce781611cab565b9050919050565b6000606082019050611d03600083018661166e565b611d10602083018561158d565b611d1d604083018461158d565b94935050505056fea2646970667358221220298987c4a2c44d2cc3da51a80749461d197c147cf09b6616c6624d978148503564736f6c63430008140033",
  "linkReferences": {},
  "deployedLinkReferences": {}
}