{
  "_format": "hh-sol-artifact-1",
  "contractName": "yieldFarm",
  "sourceName": "contracts/yieldFarm.sol",
  "abi": [
    {
      "inputs": [
        {
          "internalType": "address",
          "name": "spender",
          "type": "address"
        },
        {
          "internalType": "uint256",
          "name": "allowance",
          "type": "uint256"
        },
        {
          "internalType": "uint256",
          "name": "needed",
          "type": "uint256"
        }
      ],
      "name": "ERC20InsufficientAllowance",
      "type": "error"
    },
    {
      "inputs": [
        {
          "internalType": "address",
          "name": "sender",
          "type": "address"
        },
        {
          "internalType": "uint256",
          "name": "balance",
          "type": "uint256"
        },
        {
          "internalType": "uint256",
          "name": "needed",
          "type": "uint256"
        }
      ],
      "name": "ERC20InsufficientBalance",
      "type": "error"
    },
    {
      "inputs": [
        {
          "internalType": "address",
          "name": "approver",
          "type": "address"
        }
      ],
      "name": "ERC20InvalidApprover",
      "type": "error"
    },
    {
      "inputs": [
        {
          "internalType": "address",
          "name": "receiver",
          "type": "address"
        }
      ],
      "name": "ERC20InvalidReceiver",
      "type": "error"
    },
    {
      "inputs": [
        {
          "internalType": "address",
          "name": "sender",
          "type": "address"
        }
      ],
      "name": "ERC20InvalidSender",
      "type": "error"
    },
    {
      "inputs": [
        {
          "internalType": "address",
          "name": "spender",
          "type": "address"
        }
      ],
      "name": "ERC20InvalidSpender",
      "type": "error"
    },
    {
      "anonymous": false,
      "inputs": [
        {
          "indexed": true,
          "internalType": "address",
          "name": "owner",
          "type": "address"
        },
        {
          "indexed": true,
          "internalType": "address",
          "name": "spender",
          "type": "address"
        },
        {
          "indexed": false,
          "internalType": "uint256",
          "name": "value",
          "type": "uint256"
        }
      ],
      "name": "Approval",
      "type": "event"
    },
    {
      "anonymous": false,
      "inputs": [
        {
          "indexed": true,
          "internalType": "address",
          "name": "from",
          "type": "address"
        },
        {
          "indexed": true,
          "internalType": "address",
          "name": "to",
          "type": "address"
        },
        {
          "indexed": false,
          "internalType": "uint256",
          "name": "value",
          "type": "uint256"
        }
      ],
      "name": "Transfer",
      "type": "event"
    },
    {
      "inputs": [
        {
          "internalType": "uint256",
          "name": "maxAmount",
          "type": "uint256"
        },
        {
          "internalType": "uint256",
          "name": "yieldPercent",
          "type": "uint256"
        },
        {
          "internalType": "uint256",
          "name": "minDeposit",
          "type": "uint256"
        },
        {
          "internalType": "uint256",
          "name": "rewardTime",
          "type": "uint256"
        }
      ],
      "name": "addPool",
      "outputs": [
        {
          "internalType": "string",
          "name": "done",
          "type": "string"
        }
      ],
      "stateMutability": "nonpayable",
      "type": "function"
    },
    {
      "inputs": [
        {
          "internalType": "address",
          "name": "owner",
          "type": "address"
        },
        {
          "internalType": "address",
          "name": "spender",
          "type": "address"
        }
      ],
      "name": "allowance",
      "outputs": [
        {
          "internalType": "uint256",
          "name": "",
          "type": "uint256"
        }
      ],
      "stateMutability": "view",
      "type": "function"
    },
    {
      "inputs": [
        {
          "internalType": "address",
          "name": "spender",
          "type": "address"
        },
        {
          "internalType": "uint256",
          "name": "value",
          "type": "uint256"
        }
      ],
      "name": "approve",
      "outputs": [
        {
          "internalType": "bool",
          "name": "",
          "type": "bool"
        }
      ],
      "stateMutability": "nonpayable",
      "type": "function"
    },
    {
      "inputs": [
        {
          "internalType": "address",
          "name": "account",
          "type": "address"
        }
      ],
      "name": "balanceOf",
      "outputs": [
        {
          "internalType": "uint256",
          "name": "",
          "type": "uint256"
        }
      ],
      "stateMutability": "view",
      "type": "function"
    },
    {
      "inputs": [
        {
          "internalType": "uint256",
          "name": "poolId",
          "type": "uint256"
        }
      ],
      "name": "checkPoolDetails",
      "outputs": [
        {
          "internalType": "uint256",
          "name": "",
          "type": "uint256"
        },
        {
          "internalType": "uint256",
          "name": "",
          "type": "uint256"
        },
        {
          "internalType": "uint256",
          "name": "",
          "type": "uint256"
        },
        {
          "internalType": "uint256",
          "name": "",
          "type": "uint256"
        }
      ],
      "stateMutability": "view",
      "type": "function"
    },
    {
      "inputs": [],
      "name": "decimals",
      "outputs": [
        {
          "internalType": "uint8",
          "name": "",
          "type": "uint8"
        }
      ],
      "stateMutability": "view",
      "type": "function"
    },
    {
      "inputs": [],
      "name": "name",
      "outputs": [
        {
          "internalType": "string",
          "name": "",
          "type": "string"
        }
      ],
      "stateMutability": "view",
      "type": "function"
    },
    {
      "inputs": [
        {
          "internalType": "uint256",
          "name": "",
          "type": "uint256"
        }
      ],
      "name": "poolDirectory",
      "outputs": [
        {
          "internalType": "uint256",
          "name": "_maxAmount",
          "type": "uint256"
        },
        {
          "internalType": "uint256",
          "name": "_yeildPercent",
          "type": "uint256"
        },
        {
          "internalType": "uint256",
          "name": "_minDeposit",
          "type": "uint256"
        },
        {
          "internalType": "uint256",
          "name": "_rewardTime",
          "type": "uint256"
        }
      ],
      "stateMutability": "view",
      "type": "function"
    },
    {
      "inputs": [],
      "name": "symbol",
      "outputs": [
        {
          "internalType": "string",
          "name": "",
          "type": "string"
        }
      ],
      "stateMutability": "view",
      "type": "function"
    },
    {
      "inputs": [],
      "name": "totalSupply",
      "outputs": [
        {
          "internalType": "uint256",
          "name": "",
          "type": "uint256"
        }
      ],
      "stateMutability": "view",
      "type": "function"
    },
    {
      "inputs": [
        {
          "internalType": "address",
          "name": "to",
          "type": "address"
        },
        {
          "internalType": "uint256",
          "name": "value",
          "type": "uint256"
        }
      ],
      "name": "transfer",
      "outputs": [
        {
          "internalType": "bool",
          "name": "",
          "type": "bool"
        }
      ],
      "stateMutability": "nonpayable",
      "type": "function"
    },
    {
      "inputs": [
        {
          "internalType": "address",
          "name": "from",
          "type": "address"
        },
        {
          "internalType": "address",
          "name": "to",
          "type": "address"
        },
        {
          "internalType": "uint256",
          "name": "value",
          "type": "uint256"
        }
      ],
      "name": "transferFrom",
      "outputs": [
        {
          "internalType": "bool",
          "name": "",
          "type": "bool"
        }
      ],
      "stateMutability": "nonpayable",
      "type": "function"
    }
  ],
  "bytecode": "0x608060405260006006553480156200001657600080fd5b506040518060400160405280600c81526020017f5969656c644661726d696e6700000000000000000000000000000000000000008152506040518060400160405280600281526020017f5946000000000000000000000000000000000000000000000000000000000000815250816003908162000094919062000329565b508060049081620000a6919062000329565b50505062000410565b600081519050919050565b7f4e487b7100000000000000000000000000000000000000000000000000000000600052604160045260246000fd5b7f4e487b7100000000000000000000000000000000000000000000000000000000600052602260045260246000fd5b600060028204905060018216806200013157607f821691505b602082108103620001475762000146620000e9565b5b50919050565b60008190508160005260206000209050919050565b60006020601f8301049050919050565b600082821b905092915050565b600060088302620001b17fffffffffffffffffffffffffffffffffffffffffffffffffffffffffffffffff8262000172565b620001bd868362000172565b95508019841693508086168417925050509392505050565b6000819050919050565b6000819050919050565b60006200020a62000204620001fe84620001d5565b620001df565b620001d5565b9050919050565b6000819050919050565b6200022683620001e9565b6200023e620002358262000211565b8484546200017f565b825550505050565b600090565b6200025562000246565b620002628184846200021b565b505050565b5b818110156200028a576200027e6000826200024b565b60018101905062000268565b5050565b601f821115620002d957620002a3816200014d565b620002ae8462000162565b81016020851015620002be578190505b620002d6620002cd8562000162565b83018262000267565b50505b505050565b600082821c905092915050565b6000620002fe60001984600802620002de565b1980831691505092915050565b6000620003198383620002eb565b9150826002028217905092915050565b6200033482620000af565b67ffffffffffffffff81111562000350576200034f620000ba565b5b6200035c825462000118565b620003698282856200028e565b600060209050601f831160018114620003a157600084156200038c578287015190505b6200039885826200030b565b86555062000408565b601f198416620003b1866200014d565b60005b82811015620003db57848901518255600182019150602085019450602081019050620003b4565b86831015620003fb5784890151620003f7601f891682620002eb565b8355505b6001600288020188555050505b505050505050565b61114c80620004206000396000f3fe608060405234801561001057600080fd5b50600436106100b45760003560e01c806370a082311161007157806370a08231146101a65780638fb0a9f4146101d657806395d89b4114610209578063a9059cbb14610227578063b7c7c4e014610257578063dd62ed3e14610287576100b4565b806306fdde03146100b9578063095ea7b3146100d757806318160ddd1461010757806323b872dd14610125578063313ce567146101555780634026ce0214610173575b600080fd5b6100c16102b7565b6040516100ce9190610cc7565b60405180910390f35b6100f160048036038101906100ec9190610d82565b610349565b6040516100fe9190610ddd565b60405180910390f35b61010f61036c565b60405161011c9190610e07565b60405180910390f35b61013f600480360381019061013a9190610e22565b610376565b60405161014c9190610ddd565b60405180910390f35b61015d6103a5565b60405161016a9190610e91565b60405180910390f35b61018d60048036038101906101889190610eac565b6103ae565b60405161019d9493929190610ed9565b60405180910390f35b6101c060048036038101906101bb9190610f1e565b6103de565b6040516101cd9190610e07565b60405180910390f35b6101f060048036038101906101eb9190610eac565b610426565b6040516102009493929190610ed9565b60405180910390f35b61021161049a565b60405161021e9190610cc7565b60405180910390f35b610241600480360381019061023c9190610d82565b61052c565b60405161024e9190610ddd565b60405180910390f35b610271600480360381019061026c9190610f4b565b61054f565b60405161027e9190610cc7565b60405180910390f35b6102a1600480360381019061029c9190610fb2565b610612565b6040516102ae9190610e07565b60405180910390f35b6060600380546102c690611021565b80601f01602080910402602001604051908101604052809291908181526020018280546102f290611021565b801561033f5780601f106103145761010080835404028352916020019161033f565b820191906000526020600020905b81548152906001019060200180831161032257829003601f168201915b5050505050905090565b600080610354610699565b90506103618185856106a1565b600191505092915050565b6000600254905090565b600080610381610699565b905061038e8582856106b3565b610399858585610747565b60019150509392505050565b60006012905090565b60056020528060005260406000206000915090508060000154908060010154908060020154908060030154905084565b60008060008373ffffffffffffffffffffffffffffffffffffffff1673ffffffffffffffffffffffffffffffffffffffff168152602001908152602001600020549050919050565b600080600080600060056000878152602001908152602001600020604051806080016040529081600082015481526020016001820154815260200160028201548152602001600382015481525050905080600001518160200151826040015183606001519450945094509450509193509193565b6060600480546104a990611021565b80601f01602080910402602001604051908101604052809291908181526020018280546104d590611021565b80156105225780601f106104f757610100808354040283529160200191610522565b820191906000526020600020905b81548152906001019060200180831161050557829003601f168201915b5050505050905090565b600080610537610699565b9050610544818585610747565b600191505092915050565b60606000604051806080016040528087815260200186815260200185815260200184815250905080600560006006548152602001908152602001600020600082015181600001556020820151816001015560408201518160020155606082015181600301559050506001600660008282546105ca9190611081565b925050819055506040518060400160405280600481526020017f446f6e6500000000000000000000000000000000000000000000000000000000815250915050949350505050565b6000600160008473ffffffffffffffffffffffffffffffffffffffff1673ffffffffffffffffffffffffffffffffffffffff16815260200190815260200160002060008373ffffffffffffffffffffffffffffffffffffffff1673ffffffffffffffffffffffffffffffffffffffff16815260200190815260200160002054905092915050565b600033905090565b6106ae838383600161083b565b505050565b60006106bf8484610612565b90507fffffffffffffffffffffffffffffffffffffffffffffffffffffffffffffffff81146107415781811015610731578281836040517ffb8f41b2000000000000000000000000000000000000000000000000000000008152600401610728939291906110c4565b60405180910390fd5b6107408484848403600061083b565b5b50505050565b600073ffffffffffffffffffffffffffffffffffffffff168373ffffffffffffffffffffffffffffffffffffffff16036107b95760006040517f96c6fd1e0000000000000000000000000000000000000000000000000000000081526004016107b091906110fb565b60405180910390fd5b600073ffffffffffffffffffffffffffffffffffffffff168273ffffffffffffffffffffffffffffffffffffffff160361082b5760006040517fec442f0500000000000000000000000000000000000000000000000000000000815260040161082291906110fb565b60405180910390fd5b610836838383610a12565b505050565b600073ffffffffffffffffffffffffffffffffffffffff168473ffffffffffffffffffffffffffffffffffffffff16036108ad5760006040517fe602df050000000000000000000000000000000000000000000000000000000081526004016108a491906110fb565b60405180910390fd5b600073ffffffffffffffffffffffffffffffffffffffff168373ffffffffffffffffffffffffffffffffffffffff160361091f5760006040517f94280d6200000000000000000000000000000000000000000000000000000000815260040161091691906110fb565b60405180910390fd5b81600160008673ffffffffffffffffffffffffffffffffffffffff1673ffffffffffffffffffffffffffffffffffffffff16815260200190815260200160002060008573ffffffffffffffffffffffffffffffffffffffff1673ffffffffffffffffffffffffffffffffffffffff168152602001908152602001600020819055508015610a0c578273ffffffffffffffffffffffffffffffffffffffff168473ffffffffffffffffffffffffffffffffffffffff167f8c5be1e5ebec7d5bd14f71427d1e84f3dd0314c0f7b2291e5b200ac8c7c3b92584604051610a039190610e07565b60405180910390a35b50505050565b600073ffffffffffffffffffffffffffffffffffffffff168373ffffffffffffffffffffffffffffffffffffffff1603610a64578060026000828254610a589190611081565b92505081905550610b37565b60008060008573ffffffffffffffffffffffffffffffffffffffff1673ffffffffffffffffffffffffffffffffffffffff16815260200190815260200160002054905081811015610af0578381836040517fe450d38c000000000000000000000000000000000000000000000000000000008152600401610ae7939291906110c4565b60405180910390fd5b8181036000808673ffffffffffffffffffffffffffffffffffffffff1673ffffffffffffffffffffffffffffffffffffffff16815260200190815260200160002081905550505b600073ffffffffffffffffffffffffffffffffffffffff168273ffffffffffffffffffffffffffffffffffffffff1603610b805780600260008282540392505081905550610bcd565b806000808473ffffffffffffffffffffffffffffffffffffffff1673ffffffffffffffffffffffffffffffffffffffff168152602001908152602001600020600082825401925050819055505b8173ffffffffffffffffffffffffffffffffffffffff168373ffffffffffffffffffffffffffffffffffffffff167fddf252ad1be2c89b69c2b068fc378daa952ba7f163c4a11628f55a4df523b3ef83604051610c2a9190610e07565b60405180910390a3505050565b600081519050919050565b600082825260208201905092915050565b60005b83811015610c71578082015181840152602081019050610c56565b60008484015250505050565b6000601f19601f8301169050919050565b6000610c9982610c37565b610ca38185610c42565b9350610cb3818560208601610c53565b610cbc81610c7d565b840191505092915050565b60006020820190508181036000830152610ce18184610c8e565b905092915050565b600080fd5b600073ffffffffffffffffffffffffffffffffffffffff82169050919050565b6000610d1982610cee565b9050919050565b610d2981610d0e565b8114610d3457600080fd5b50565b600081359050610d4681610d20565b92915050565b6000819050919050565b610d5f81610d4c565b8114610d6a57600080fd5b50565b600081359050610d7c81610d56565b92915050565b60008060408385031215610d9957610d98610ce9565b5b6000610da785828601610d37565b9250506020610db885828601610d6d565b9150509250929050565b60008115159050919050565b610dd781610dc2565b82525050565b6000602082019050610df26000830184610dce565b92915050565b610e0181610d4c565b82525050565b6000602082019050610e1c6000830184610df8565b92915050565b600080600060608486031215610e3b57610e3a610ce9565b5b6000610e4986828701610d37565b9350506020610e5a86828701610d37565b9250506040610e6b86828701610d6d565b9150509250925092565b600060ff82169050919050565b610e8b81610e75565b82525050565b6000602082019050610ea66000830184610e82565b92915050565b600060208284031215610ec257610ec1610ce9565b5b6000610ed084828501610d6d565b91505092915050565b6000608082019050610eee6000830187610df8565b610efb6020830186610df8565b610f086040830185610df8565b610f156060830184610df8565b95945050505050565b600060208284031215610f3457610f33610ce9565b5b6000610f4284828501610d37565b91505092915050565b60008060008060808587031215610f6557610f64610ce9565b5b6000610f7387828801610d6d565b9450506020610f8487828801610d6d565b9350506040610f9587828801610d6d565b9250506060610fa687828801610d6d565b91505092959194509250565b60008060408385031215610fc957610fc8610ce9565b5b6000610fd785828601610d37565b9250506020610fe885828601610d37565b9150509250929050565b7f4e487b7100000000000000000000000000000000000000000000000000000000600052602260045260246000fd5b6000600282049050600182168061103957607f821691505b60208210810361104c5761104b610ff2565b5b50919050565b7f4e487b7100000000000000000000000000000000000000000000000000000000600052601160045260246000fd5b600061108c82610d4c565b915061109783610d4c565b92508282019050808211156110af576110ae611052565b5b92915050565b6110be81610d0e565b82525050565b60006060820190506110d960008301866110b5565b6110e66020830185610df8565b6110f36040830184610df8565b949350505050565b600060208201905061111060008301846110b5565b9291505056fea2646970667358221220fc3156956fa66d51b1c70e0511834aee6a7d63d3694c5580a46854261ef9439564736f6c63430008180033",
  "linkReferences": {},
  "deployedLinkReferences": {}
}